{
  "_format": "hh-sol-artifact-1",
  "contractName": "Greetings",
  "sourceName": "contracts/Greeter.sol",
  "abi": [
    {
      "inputs": [],
      "stateMutability": "payable",
      "type": "constructor"
    },
    {
      "anonymous": false,
      "inputs": [
        {
          "indexed": true,
          "internalType": "address",
          "name": "from",
          "type": "address"
        },
        {
          "indexed": false,
          "internalType": "uint256",
          "name": "timestamp",
          "type": "uint256"
        },
        {
          "indexed": false,
          "internalType": "string",
          "name": "message",
          "type": "string"
        },
        {
          "indexed": false,
          "internalType": "string",
          "name": "name",
          "type": "string"
        }
      ],
      "name": "newHighfive",
      "type": "event"
    },
    {
      "anonymous": false,
      "inputs": [
        {
          "indexed": true,
          "internalType": "address",
          "name": "from",
          "type": "address"
        },
        {
          "indexed": false,
          "internalType": "uint256",
          "name": "timestamp",
          "type": "uint256"
        },
        {
          "indexed": false,
          "internalType": "string",
          "name": "message",
          "type": "string"
        }
      ],
      "name": "newWave",
      "type": "event"
    },
    {
      "inputs": [],
      "name": "getHighfives",
      "outputs": [
        {
          "internalType": "uint256",
          "name": "",
          "type": "uint256"
        }
      ],
      "stateMutability": "view",
      "type": "function"
    },
    {
      "inputs": [],
      "name": "getSentHIGHFIVES",
      "outputs": [
        {
          "components": [
            {
              "internalType": "address",
              "name": "highfiver",
              "type": "address"
            },
            {
              "internalType": "string",
              "name": "message",
              "type": "string"
            },
            {
              "internalType": "string",
              "name": "name",
              "type": "string"
            },
            {
              "internalType": "uint256",
              "name": "timestamp",
              "type": "uint256"
            }
          ],
          "internalType": "struct Greetings.HighFive[]",
          "name": "",
          "type": "tuple[]"
        }
      ],
      "stateMutability": "view",
      "type": "function"
    },
    {
      "inputs": [],
      "name": "getSentWAVES",
      "outputs": [
        {
          "components": [
            {
              "internalType": "address",
              "name": "waver",
              "type": "address"
            },
            {
              "internalType": "string",
              "name": "message",
              "type": "string"
            },
            {
              "internalType": "uint256",
              "name": "timestamp",
              "type": "uint256"
            }
          ],
          "internalType": "struct Greetings.Wave[]",
          "name": "",
          "type": "tuple[]"
        }
      ],
      "stateMutability": "view",
      "type": "function"
    },
    {
      "inputs": [],
      "name": "getTotalWaves",
      "outputs": [
        {
          "internalType": "uint256",
          "name": "",
          "type": "uint256"
        }
      ],
      "stateMutability": "view",
      "type": "function"
    },
    {
      "inputs": [
        {
          "internalType": "string",
          "name": "_message",
          "type": "string"
        },
        {
          "internalType": "string",
          "name": "_name",
          "type": "string"
        }
      ],
      "name": "highFive",
      "outputs": [],
      "stateMutability": "nonpayable",
      "type": "function"
    },
    {
      "inputs": [
        {
          "internalType": "address",
          "name": "",
          "type": "address"
        }
      ],
      "name": "lastWavedAt",
      "outputs": [
        {
          "internalType": "uint256",
          "name": "",
          "type": "uint256"
        }
      ],
      "stateMutability": "view",
      "type": "function"
    },
    {
      "inputs": [
        {
          "internalType": "string",
          "name": "_message",
          "type": "string"
        }
      ],
      "name": "wave",
      "outputs": [],
      "stateMutability": "nonpayable",
      "type": "function"
    }
  ],
  "bytecode": "0x608060405262000033604051806060016040528060348152602001620018bb603491396200003960201b620009d11760201c565b620001cd565b620000d98160405160240162000050919062000146565b6040516020818303038152906040527f41304fac000000000000000000000000000000000000000000000000000000007bffffffffffffffffffffffffffffffffffffffffffffffffffffffff19166020820180517bffffffffffffffffffffffffffffffffffffffffffffffffffffffff8381831617835250505050620000dc60201b60201c565b50565b60008151905060006a636f6e736f6c652e6c6f679050602083016000808483855afa5050505050565b600062000112826200016a565b6200011e818562000175565b93506200013081856020860162000186565b6200013b81620001bc565b840191505092915050565b6000602082019050818103600083015262000162818462000105565b905092915050565b600081519050919050565b600082825260208201905092915050565b60005b83811015620001a657808201518184015260208101905062000189565b83811115620001b6576000848401525b50505050565b6000601f19601f8301169050919050565b6116de80620001dd6000396000f3fe608060405234801561001057600080fd5b506004361061007d5760003560e01c8063882197101161005b57806388219710146100d85780639a2cdc08146100f6578063a42a466314610114578063ccfc59a6146101445761007d565b80632922927f14610082578063449d46c01461009e5780637e0e90cb146100ba575b600080fd5b61009c60048036038101906100979190610d55565b610162565b005b6100b860048036038101906100b39190610d14565b61053a565b005b6100c2610672565b6040516100cf9190611202565b60405180910390f35b6100e061067c565b6040516100ed91906110fe565b60405180910390f35b6100fe6107cd565b60405161010b9190611202565b60405180910390f35b61012e60048036038101906101299190610ceb565b6107d6565b60405161013b9190611202565b60405180910390f35b61014c6107ee565b60405161015991906110dc565b60405180910390f35b60018060008282546101749190611392565b925050819055504261012c600460003373ffffffffffffffffffffffffffffffffffffffff1673ffffffffffffffffffffffffffffffffffffffff168152602001908152602001600020546101c99190611392565b10610209576040517f08c379a0000000000000000000000000000000000000000000000000000000008152600401610200906111c2565b60405180910390fd5b42600460003373ffffffffffffffffffffffffffffffffffffffff1673ffffffffffffffffffffffffffffffffffffffff16815260200190815260200160002081905550600360405180608001604052803373ffffffffffffffffffffffffffffffffffffffff16815260200184815260200183815260200142815250908060018154018082558091505060019003906000526020600020906004020160009091909190915060008201518160000160006101000a81548173ffffffffffffffffffffffffffffffffffffffff021916908373ffffffffffffffffffffffffffffffffffffffff1602179055506020820151816001019080519060200190610312929190610bcb565b50604082015181600201908051906020019061032f929190610bcb565b5060608201518160030155505060006064424461034c9190611392565b61035691906114c9565b90506103976040518060400160405280601681526020017f52616e646f6d20232067656e6572617465643a2025730000000000000000000081525082610a6a565b600081905060328210156104e2576103e46040518060400160405280600781526020017f257320776f6e210000000000000000000000000000000000000000000000000081525033610b06565b600066038d7ea4c68000905047811115610433576040517f08c379a000000000000000000000000000000000000000000000000000000000815260040161042a906111e2565b60405180910390fd5b60003373ffffffffffffffffffffffffffffffffffffffff1682604051610459906110c7565b60006040518083038185875af1925050503d8060008114610496576040519150601f19603f3d011682016040523d82523d6000602084013e61049b565b606091505b50509050806104df576040517f08c379a00000000000000000000000000000000000000000000000000000000081526004016104d6906111a2565b60405180910390fd5b50505b3373ffffffffffffffffffffffffffffffffffffffff167f5d091ac408c1b437acf3366470b71cafcee2720cd3cce6d7c6419082709e895c42868660405161052c9392919061124d565b60405180910390a250505050565b600160008082825461054c9190611392565b92505081905550600260405180606001604052803373ffffffffffffffffffffffffffffffffffffffff16815260200183815260200142815250908060018154018082558091505060019003906000526020600020906003020160009091909190915060008201518160000160006101000a81548173ffffffffffffffffffffffffffffffffffffffff021916908373ffffffffffffffffffffffffffffffffffffffff1602179055506020820151816001019080519060200190610612929190610bcb565b506040820151816002015550503373ffffffffffffffffffffffffffffffffffffffff167f827fc0b1433d32e3710239670a4c525416496a64d64f2374a5e4ea595c0738c6428360405161066792919061121d565b60405180910390a250565b6000600154905090565b60606002805480602002602001604051908101604052809291908181526020016000905b828210156107c457838290600052602060002090600302016040518060600160405290816000820160009054906101000a900473ffffffffffffffffffffffffffffffffffffffff1673ffffffffffffffffffffffffffffffffffffffff1673ffffffffffffffffffffffffffffffffffffffff16815260200160018201805461072990611466565b80601f016020809104026020016040519081016040528092919081815260200182805461075590611466565b80156107a25780601f10610777576101008083540402835291602001916107a2565b820191906000526020600020905b81548152906001019060200180831161078557829003601f168201915b50505050508152602001600282015481525050815260200190600101906106a0565b50505050905090565b60008054905090565b60046020528060005260406000206000915090505481565b60606003805480602002602001604051908101604052809291908181526020016000905b828210156109c857838290600052602060002090600402016040518060800160405290816000820160009054906101000a900473ffffffffffffffffffffffffffffffffffffffff1673ffffffffffffffffffffffffffffffffffffffff1673ffffffffffffffffffffffffffffffffffffffff16815260200160018201805461089b90611466565b80601f01602080910402602001604051908101604052809291908181526020018280546108c790611466565b80156109145780601f106108e957610100808354040283529160200191610914565b820191906000526020600020905b8154815290600101906020018083116108f757829003601f168201915b5050505050815260200160028201805461092d90611466565b80601f016020809104026020016040519081016040528092919081815260200182805461095990611466565b80156109a65780601f1061097b576101008083540402835291602001916109a6565b820191906000526020600020905b81548152906001019060200180831161098957829003601f168201915b5050505050815260200160038201548152505081526020019060010190610812565b50505050905090565b610a67816040516024016109e59190611120565b6040516020818303038152906040527f41304fac000000000000000000000000000000000000000000000000000000007bffffffffffffffffffffffffffffffffffffffffffffffffffffffff19166020820180517bffffffffffffffffffffffffffffffffffffffffffffffffffffffff8381831617835250505050610ba2565b50565b610b028282604051602401610a80929190611172565b6040516020818303038152906040527f9710a9d0000000000000000000000000000000000000000000000000000000007bffffffffffffffffffffffffffffffffffffffffffffffffffffffff19166020820180517bffffffffffffffffffffffffffffffffffffffffffffffffffffffff8381831617835250505050610ba2565b5050565b610b9e8282604051602401610b1c929190611142565b6040516020818303038152906040527f319af333000000000000000000000000000000000000000000000000000000007bffffffffffffffffffffffffffffffffffffffffffffffffffffffff19166020820180517bffffffffffffffffffffffffffffffffffffffffffffffffffffffff8381831617835250505050610ba2565b5050565b60008151905060006a636f6e736f6c652e6c6f679050602083016000808483855afa5050505050565b828054610bd790611466565b90600052602060002090601f016020900481019282610bf95760008555610c40565b82601f10610c1257805160ff1916838001178555610c40565b82800160010185558215610c40579182015b82811115610c3f578251825591602001919060010190610c24565b5b509050610c4d9190610c51565b5090565b5b80821115610c6a576000816000905550600101610c52565b5090565b6000610c81610c7c846112b7565b611292565b905082815260208101848484011115610c9957600080fd5b610ca4848285611424565b509392505050565b600081359050610cbb81611691565b92915050565b600082601f830112610cd257600080fd5b8135610ce2848260208601610c6e565b91505092915050565b600060208284031215610cfd57600080fd5b6000610d0b84828501610cac565b91505092915050565b600060208284031215610d2657600080fd5b600082013567ffffffffffffffff811115610d4057600080fd5b610d4c84828501610cc1565b91505092915050565b60008060408385031215610d6857600080fd5b600083013567ffffffffffffffff811115610d8257600080fd5b610d8e85828601610cc1565b925050602083013567ffffffffffffffff811115610dab57600080fd5b610db785828601610cc1565b9150509250929050565b6000610dcd8383610fef565b905092915050565b6000610de18383611059565b905092915050565b610df2816113e8565b82525050565b610e01816113e8565b82525050565b6000610e1282611308565b610e1c8185611343565b935083602082028501610e2e856112e8565b8060005b85811015610e6a5784840389528151610e4b8582610dc1565b9450610e5683611329565b925060208a01995050600181019050610e32565b50829750879550505050505092915050565b6000610e8782611313565b610e918185611354565b935083602082028501610ea3856112f8565b8060005b85811015610edf5784840389528151610ec08582610dd5565b9450610ecb83611336565b925060208a01995050600181019050610ea7565b50829750879550505050505092915050565b6000610efc8261131e565b610f068185611370565b9350610f16818560208601611433565b610f1f816115b6565b840191505092915050565b6000610f358261131e565b610f3f8185611381565b9350610f4f818560208601611433565b610f58816115b6565b840191505092915050565b6000610f70602783611381565b9150610f7b826115c7565b604082019050919050565b6000610f93600083611365565b9150610f9e82611616565b600082019050919050565b6000610fb6600783611381565b9150610fc182611619565b602082019050919050565b6000610fd9603383611381565b9150610fe482611642565b604082019050919050565b60006080830160008301516110076000860182610de9565b506020830151848203602086015261101f8282610ef1565b915050604083015184820360408601526110398282610ef1565b915050606083015161104e60608601826110a9565b508091505092915050565b60006060830160008301516110716000860182610de9565b50602083015184820360208601526110898282610ef1565b915050604083015161109e60408601826110a9565b508091505092915050565b6110b28161141a565b82525050565b6110c18161141a565b82525050565b60006110d282610f86565b9150819050919050565b600060208201905081810360008301526110f68184610e07565b905092915050565b600060208201905081810360008301526111188184610e7c565b905092915050565b6000602082019050818103600083015261113a8184610f2a565b905092915050565b6000604082019050818103600083015261115c8185610f2a565b905061116b6020830184610df8565b9392505050565b6000604082019050818103600083015261118c8185610f2a565b905061119b60208301846110b8565b9392505050565b600060208201905081810360008301526111bb81610f63565b9050919050565b600060208201905081810360008301526111db81610fa9565b9050919050565b600060208201905081810360008301526111fb81610fcc565b9050919050565b600060208201905061121760008301846110b8565b92915050565b600060408201905061123260008301856110b8565b81810360208301526112448184610f2a565b90509392505050565b600060608201905061126260008301866110b8565b81810360208301526112748185610f2a565b905081810360408301526112888184610f2a565b9050949350505050565b600061129c6112ad565b90506112a88282611498565b919050565b6000604051905090565b600067ffffffffffffffff8211156112d2576112d1611587565b5b6112db826115b6565b9050602081019050919050565b6000819050602082019050919050565b6000819050602082019050919050565b600081519050919050565b600081519050919050565b600081519050919050565b6000602082019050919050565b6000602082019050919050565b600082825260208201905092915050565b600082825260208201905092915050565b600081905092915050565b600082825260208201905092915050565b600082825260208201905092915050565b600061139d8261141a565b91506113a88361141a565b9250827fffffffffffffffffffffffffffffffffffffffffffffffffffffffffffffffff038211156113dd576113dc6114fa565b5b828201905092915050565b60006113f3826113fa565b9050919050565b600073ffffffffffffffffffffffffffffffffffffffff82169050919050565b6000819050919050565b82818337600083830152505050565b60005b83811015611451578082015181840152602081019050611436565b83811115611460576000848401525b50505050565b6000600282049050600182168061147e57607f821691505b6020821081141561149257611491611558565b5b50919050565b6114a1826115b6565b810181811067ffffffffffffffff821117156114c0576114bf611587565b5b80604052505050565b60006114d48261141a565b91506114df8361141a565b9250826114ef576114ee611529565b5b828206905092915050565b7f4e487b7100000000000000000000000000000000000000000000000000000000600052601160045260246000fd5b7f4e487b7100000000000000000000000000000000000000000000000000000000600052601260045260246000fd5b7f4e487b7100000000000000000000000000000000000000000000000000000000600052602260045260246000fd5b7f4e487b7100000000000000000000000000000000000000000000000000000000600052604160045260246000fd5b6000601f19601f8301169050919050565b7f4661696c656420746f207769746864726177206d6f6e65792066726f6d20636f60008201527f6e74726163742e00000000000000000000000000000000000000000000000000602082015250565b50565b7f5761697420356d00000000000000000000000000000000000000000000000000600082015250565b7f547279696e6720746f207769746864726177206d6f7265206d6f6e657920746860008201527f616e2074686520636f6e74726163742068617300000000000000000000000000602082015250565b61169a816113e8565b81146116a557600080fd5b5056fea2646970667358221220de2ebc762acc20cd3f370c002802f1691d43bf33287bf2ec72d408fcfef5f28964736f6c63430008040033574841542055502c204920616d206120636f6e747261637420616e64204920616d20616c736f207665727920736d617274203a29",
  "linkReferences": {},
  "deployedLinkReferences": {}
}