{
  "_format": "hh-sol-artifact-1",
  "contractName": "Greetings",
  "sourceName": "contracts/Greeter.sol",
  "abi": [
    {
      "inputs": [],
      "stateMutability": "nonpayable",
      "type": "constructor"
    },
    {
      "anonymous": false,
      "inputs": [
        {
          "indexed": true,
          "internalType": "address",
          "name": "from",
          "type": "address"
        },
        {
          "indexed": false,
          "internalType": "uint256",
          "name": "timestamp",
          "type": "uint256"
        },
        {
          "indexed": false,
          "internalType": "string",
          "name": "message",
          "type": "string"
        },
        {
          "indexed": false,
          "internalType": "string",
          "name": "name",
          "type": "string"
        }
      ],
      "name": "newHighfive",
      "type": "event"
    },
    {
      "anonymous": false,
      "inputs": [
        {
          "indexed": true,
          "internalType": "address",
          "name": "from",
          "type": "address"
        },
        {
          "indexed": false,
          "internalType": "uint256",
          "name": "timestamp",
          "type": "uint256"
        },
        {
          "indexed": false,
          "internalType": "string",
          "name": "message",
          "type": "string"
        }
      ],
      "name": "newWave",
      "type": "event"
    },
    {
      "inputs": [],
      "name": "getHighfives",
      "outputs": [
        {
          "internalType": "uint256",
          "name": "",
          "type": "uint256"
        }
      ],
      "stateMutability": "view",
      "type": "function"
    },
    {
      "inputs": [],
      "name": "getSentHIGHFIVES",
      "outputs": [
        {
          "components": [
            {
              "internalType": "address",
              "name": "highfiver",
              "type": "address"
            },
            {
              "internalType": "string",
              "name": "message",
              "type": "string"
            },
            {
              "internalType": "string",
              "name": "name",
              "type": "string"
            },
            {
              "internalType": "uint256",
              "name": "timestamp",
              "type": "uint256"
            }
          ],
          "internalType": "struct Greetings.HighFive[]",
          "name": "",
          "type": "tuple[]"
        }
      ],
      "stateMutability": "view",
      "type": "function"
    },
    {
      "inputs": [],
      "name": "getSentWAVES",
      "outputs": [
        {
          "components": [
            {
              "internalType": "address",
              "name": "waver",
              "type": "address"
            },
            {
              "internalType": "string",
              "name": "message",
              "type": "string"
            },
            {
              "internalType": "uint256",
              "name": "timestamp",
              "type": "uint256"
            }
          ],
          "internalType": "struct Greetings.Wave[]",
          "name": "",
          "type": "tuple[]"
        }
      ],
      "stateMutability": "view",
      "type": "function"
    },
    {
      "inputs": [],
      "name": "getTotalWaves",
      "outputs": [
        {
          "internalType": "uint256",
          "name": "",
          "type": "uint256"
        }
      ],
      "stateMutability": "view",
      "type": "function"
    },
    {
      "inputs": [
        {
          "internalType": "string",
          "name": "_message",
          "type": "string"
        }
      ],
      "name": "wave",
      "outputs": [],
      "stateMutability": "nonpayable",
      "type": "function"
    },
    {
      "inputs": [
        {
          "internalType": "string",
          "name": "_message",
          "type": "string"
        },
        {
          "internalType": "string",
          "name": "_name",
          "type": "string"
        }
      ],
      "name": "waveAndHighFive",
      "outputs": [],
      "stateMutability": "nonpayable",
      "type": "function"
    }
  ],
  "bytecode": "0x60806040523480156200001157600080fd5b5062000041604051806060016040528060348152602001620012ef603491396200004760201b620008291760201c565b620001db565b620000e7816040516024016200005e919062000154565b6040516020818303038152906040527f41304fac000000000000000000000000000000000000000000000000000000007bffffffffffffffffffffffffffffffffffffffffffffffffffffffff19166020820180517bffffffffffffffffffffffffffffffffffffffffffffffffffffffff8381831617835250505050620000ea60201b60201c565b50565b60008151905060006a636f6e736f6c652e6c6f679050602083016000808483855afa5050505050565b6000620001208262000178565b6200012c818562000183565b93506200013e81856020860162000194565b6200014981620001ca565b840191505092915050565b6000602082019050818103600083015262000170818462000113565b905092915050565b600081519050919050565b600082825260208201905092915050565b60005b83811015620001b457808201518184015260208101905062000197565b83811115620001c4576000848401525b50505050565b6000601f19601f8301169050919050565b61110480620001eb6000396000f3fe608060405234801561001057600080fd5b50600436106100625760003560e01c806331799b6414610067578063449d46c0146100835780637e0e90cb1461009f57806388219710146100bd5780639a2cdc08146100db578063ccfc59a6146100f9575b600080fd5b610081600480360381019061007c9190610a37565b610117565b005b61009d600480360381019061009891906109f6565b6103aa565b005b6100a76104e2565b6040516100b49190610d74565b60405180910390f35b6100c56104ec565b6040516100d29190610d30565b60405180910390f35b6100e361063d565b6040516100f09190610d74565b60405180910390f35b610101610646565b60405161010e9190610d0e565b60405180910390f35b60016000808282546101299190610ef9565b9250508190555060018060008282546101429190610ef9565b92505081905550600260405180606001604052803373ffffffffffffffffffffffffffffffffffffffff16815260200184815260200142815250908060018154018082558091505060019003906000526020600020906003020160009091909190915060008201518160000160006101000a81548173ffffffffffffffffffffffffffffffffffffffff021916908373ffffffffffffffffffffffffffffffffffffffff16021790555060208201518160010190805190602001906102089291906108eb565b506040820151816002015550503373ffffffffffffffffffffffffffffffffffffffff167f827fc0b1433d32e3710239670a4c525416496a64d64f2374a5e4ea595c0738c6428460405161025d929190610d8f565b60405180910390a2600360405180608001604052803373ffffffffffffffffffffffffffffffffffffffff16815260200184815260200183815260200142815250908060018154018082558091505060019003906000526020600020906004020160009091909190915060008201518160000160006101000a81548173ffffffffffffffffffffffffffffffffffffffff021916908373ffffffffffffffffffffffffffffffffffffffff160217905550602082015181600101908051906020019061032a9291906108eb565b5060408201518160020190805190602001906103479291906108eb565b506060820151816003015550503373ffffffffffffffffffffffffffffffffffffffff167f5d091ac408c1b437acf3366470b71cafcee2720cd3cce6d7c6419082709e895c42848460405161039e93929190610dbf565b60405180910390a25050565b60016000808282546103bc9190610ef9565b92505081905550600260405180606001604052803373ffffffffffffffffffffffffffffffffffffffff16815260200183815260200142815250908060018154018082558091505060019003906000526020600020906003020160009091909190915060008201518160000160006101000a81548173ffffffffffffffffffffffffffffffffffffffff021916908373ffffffffffffffffffffffffffffffffffffffff16021790555060208201518160010190805190602001906104829291906108eb565b506040820151816002015550503373ffffffffffffffffffffffffffffffffffffffff167f827fc0b1433d32e3710239670a4c525416496a64d64f2374a5e4ea595c0738c642836040516104d7929190610d8f565b60405180910390a250565b6000600154905090565b60606002805480602002602001604051908101604052809291908181526020016000905b8282101561063457838290600052602060002090600302016040518060600160405290816000820160009054906101000a900473ffffffffffffffffffffffffffffffffffffffff1673ffffffffffffffffffffffffffffffffffffffff1673ffffffffffffffffffffffffffffffffffffffff16815260200160018201805461059990610fcd565b80601f01602080910402602001604051908101604052809291908181526020018280546105c590610fcd565b80156106125780601f106105e757610100808354040283529160200191610612565b820191906000526020600020905b8154815290600101906020018083116105f557829003601f168201915b5050505050815260200160028201548152505081526020019060010190610510565b50505050905090565b60008054905090565b60606003805480602002602001604051908101604052809291908181526020016000905b8282101561082057838290600052602060002090600402016040518060800160405290816000820160009054906101000a900473ffffffffffffffffffffffffffffffffffffffff1673ffffffffffffffffffffffffffffffffffffffff1673ffffffffffffffffffffffffffffffffffffffff1681526020016001820180546106f390610fcd565b80601f016020809104026020016040519081016040528092919081815260200182805461071f90610fcd565b801561076c5780601f106107415761010080835404028352916020019161076c565b820191906000526020600020905b81548152906001019060200180831161074f57829003601f168201915b5050505050815260200160028201805461078590610fcd565b80601f01602080910402602001604051908101604052809291908181526020018280546107b190610fcd565b80156107fe5780601f106107d3576101008083540402835291602001916107fe565b820191906000526020600020905b8154815290600101906020018083116107e157829003601f168201915b505050505081526020016003820154815250508152602001906001019061066a565b50505050905090565b6108bf8160405160240161083d9190610d52565b6040516020818303038152906040527f41304fac000000000000000000000000000000000000000000000000000000007bffffffffffffffffffffffffffffffffffffffffffffffffffffffff19166020820180517bffffffffffffffffffffffffffffffffffffffffffffffffffffffff83818316178352505050506108c2565b50565b60008151905060006a636f6e736f6c652e6c6f679050602083016000808483855afa5050505050565b8280546108f790610fcd565b90600052602060002090601f0160209004810192826109195760008555610960565b82601f1061093257805160ff1916838001178555610960565b82800160010185558215610960579182015b8281111561095f578251825591602001919060010190610944565b5b50905061096d9190610971565b5090565b5b8082111561098a576000816000905550600101610972565b5090565b60006109a161099c84610e29565b610e04565b9050828152602081018484840111156109b957600080fd5b6109c4848285610f8b565b509392505050565b600082601f8301126109dd57600080fd5b81356109ed84826020860161098e565b91505092915050565b600060208284031215610a0857600080fd5b600082013567ffffffffffffffff811115610a2257600080fd5b610a2e848285016109cc565b91505092915050565b60008060408385031215610a4a57600080fd5b600083013567ffffffffffffffff811115610a6457600080fd5b610a70858286016109cc565b925050602083013567ffffffffffffffff811115610a8d57600080fd5b610a99858286016109cc565b9150509250929050565b6000610aaf8383610c36565b905092915050565b6000610ac38383610ca0565b905092915050565b610ad481610f4f565b82525050565b6000610ae582610e7a565b610aef8185610eb5565b935083602082028501610b0185610e5a565b8060005b85811015610b3d5784840389528151610b1e8582610aa3565b9450610b2983610e9b565b925060208a01995050600181019050610b05565b50829750879550505050505092915050565b6000610b5a82610e85565b610b648185610ec6565b935083602082028501610b7685610e6a565b8060005b85811015610bb25784840389528151610b938582610ab7565b9450610b9e83610ea8565b925060208a01995050600181019050610b7a565b50829750879550505050505092915050565b6000610bcf82610e90565b610bd98185610ed7565b9350610be9818560208601610f9a565b610bf2816110bd565b840191505092915050565b6000610c0882610e90565b610c128185610ee8565b9350610c22818560208601610f9a565b610c2b816110bd565b840191505092915050565b6000608083016000830151610c4e6000860182610acb565b5060208301518482036020860152610c668282610bc4565b91505060408301518482036040860152610c808282610bc4565b9150506060830151610c956060860182610cf0565b508091505092915050565b6000606083016000830151610cb86000860182610acb565b5060208301518482036020860152610cd08282610bc4565b9150506040830151610ce56040860182610cf0565b508091505092915050565b610cf981610f81565b82525050565b610d0881610f81565b82525050565b60006020820190508181036000830152610d288184610ada565b905092915050565b60006020820190508181036000830152610d4a8184610b4f565b905092915050565b60006020820190508181036000830152610d6c8184610bfd565b905092915050565b6000602082019050610d896000830184610cff565b92915050565b6000604082019050610da46000830185610cff565b8181036020830152610db68184610bfd565b90509392505050565b6000606082019050610dd46000830186610cff565b8181036020830152610de68185610bfd565b90508181036040830152610dfa8184610bfd565b9050949350505050565b6000610e0e610e1f565b9050610e1a8282610fff565b919050565b6000604051905090565b600067ffffffffffffffff821115610e4457610e4361108e565b5b610e4d826110bd565b9050602081019050919050565b6000819050602082019050919050565b6000819050602082019050919050565b600081519050919050565b600081519050919050565b600081519050919050565b6000602082019050919050565b6000602082019050919050565b600082825260208201905092915050565b600082825260208201905092915050565b600082825260208201905092915050565b600082825260208201905092915050565b6000610f0482610f81565b9150610f0f83610f81565b9250827fffffffffffffffffffffffffffffffffffffffffffffffffffffffffffffffff03821115610f4457610f43611030565b5b828201905092915050565b6000610f5a82610f61565b9050919050565b600073ffffffffffffffffffffffffffffffffffffffff82169050919050565b6000819050919050565b82818337600083830152505050565b60005b83811015610fb8578082015181840152602081019050610f9d565b83811115610fc7576000848401525b50505050565b60006002820490506001821680610fe557607f821691505b60208210811415610ff957610ff861105f565b5b50919050565b611008826110bd565b810181811067ffffffffffffffff821117156110275761102661108e565b5b80604052505050565b7f4e487b7100000000000000000000000000000000000000000000000000000000600052601160045260246000fd5b7f4e487b7100000000000000000000000000000000000000000000000000000000600052602260045260246000fd5b7f4e487b7100000000000000000000000000000000000000000000000000000000600052604160045260246000fd5b6000601f19601f830116905091905056fea2646970667358221220b089edf4df83cd3bac36d4d9cd1b1ae6a52b9ae753b09b7d55a914c56be21f3c64736f6c63430008040033574841542055502c204920616d206120636f6e747261637420616e64204920616d20616c736f207665727920736d617274203a29",
  "linkReferences": {},
  "deployedLinkReferences": {}
}