{
  "_format": "hh-sol-artifact-1",
  "contractName": "Greetings",
  "sourceName": "contracts/Greeter.sol",
  "abi": [
    {
      "inputs": [],
      "stateMutability": "payable",
      "type": "constructor"
    },
    {
      "anonymous": false,
      "inputs": [
        {
          "indexed": true,
          "internalType": "address",
          "name": "from",
          "type": "address"
        },
        {
          "indexed": false,
          "internalType": "uint256",
          "name": "timestamp",
          "type": "uint256"
        },
        {
          "indexed": false,
          "internalType": "string",
          "name": "message",
          "type": "string"
        },
        {
          "indexed": false,
          "internalType": "string",
          "name": "name",
          "type": "string"
        }
      ],
      "name": "newHighfive",
      "type": "event"
    },
    {
      "anonymous": false,
      "inputs": [
        {
          "indexed": true,
          "internalType": "address",
          "name": "from",
          "type": "address"
        },
        {
          "indexed": false,
          "internalType": "uint256",
          "name": "timestamp",
          "type": "uint256"
        },
        {
          "indexed": false,
          "internalType": "string",
          "name": "message",
          "type": "string"
        }
      ],
      "name": "newWave",
      "type": "event"
    },
    {
      "inputs": [],
      "name": "getHighfives",
      "outputs": [
        {
          "internalType": "uint256",
          "name": "",
          "type": "uint256"
        }
      ],
      "stateMutability": "view",
      "type": "function"
    },
    {
      "inputs": [],
      "name": "getSentHIGHFIVES",
      "outputs": [
        {
          "components": [
            {
              "internalType": "address",
              "name": "highfiver",
              "type": "address"
            },
            {
              "internalType": "string",
              "name": "message",
              "type": "string"
            },
            {
              "internalType": "string",
              "name": "name",
              "type": "string"
            },
            {
              "internalType": "uint256",
              "name": "timestamp",
              "type": "uint256"
            }
          ],
          "internalType": "struct Greetings.HighFive[]",
          "name": "",
          "type": "tuple[]"
        }
      ],
      "stateMutability": "view",
      "type": "function"
    },
    {
      "inputs": [],
      "name": "getSentWAVES",
      "outputs": [
        {
          "components": [
            {
              "internalType": "address",
              "name": "waver",
              "type": "address"
            },
            {
              "internalType": "string",
              "name": "message",
              "type": "string"
            },
            {
              "internalType": "uint256",
              "name": "timestamp",
              "type": "uint256"
            }
          ],
          "internalType": "struct Greetings.Wave[]",
          "name": "",
          "type": "tuple[]"
        }
      ],
      "stateMutability": "view",
      "type": "function"
    },
    {
      "inputs": [],
      "name": "getTotalWaves",
      "outputs": [
        {
          "internalType": "uint256",
          "name": "",
          "type": "uint256"
        }
      ],
      "stateMutability": "view",
      "type": "function"
    },
    {
      "inputs": [
        {
          "internalType": "string",
          "name": "_message",
          "type": "string"
        },
        {
          "internalType": "string",
          "name": "_name",
          "type": "string"
        }
      ],
      "name": "highFive",
      "outputs": [],
      "stateMutability": "nonpayable",
      "type": "function"
    },
    {
      "inputs": [
        {
          "internalType": "string",
          "name": "_message",
          "type": "string"
        }
      ],
      "name": "wave",
      "outputs": [],
      "stateMutability": "nonpayable",
      "type": "function"
    }
  ],
  "bytecode": "0x60806040526200003360405180606001604052806034815260200162001413603491396200003960201b620007f11760201c565b620001cd565b620000d98160405160240162000050919062000146565b6040516020818303038152906040527f41304fac000000000000000000000000000000000000000000000000000000007bffffffffffffffffffffffffffffffffffffffffffffffffffffffff19166020820180517bffffffffffffffffffffffffffffffffffffffffffffffffffffffff8381831617835250505050620000dc60201b60201c565b50565b60008151905060006a636f6e736f6c652e6c6f679050602083016000808483855afa5050505050565b600062000112826200016a565b6200011e818562000175565b93506200013081856020860162000186565b6200013b81620001bc565b840191505092915050565b6000602082019050818103600083015262000162818462000105565b905092915050565b600081519050919050565b600082825260208201905092915050565b60005b83811015620001a657808201518184015260208101905062000189565b83811115620001b6576000848401525b50505050565b6000601f19601f8301169050919050565b61123680620001dd6000396000f3fe608060405234801561001057600080fd5b50600436106100625760003560e01c80632922927f14610067578063449d46c0146100835780637e0e90cb1461009f57806388219710146100bd5780639a2cdc08146100db578063ccfc59a6146100f9575b600080fd5b610081600480360381019061007c91906109ff565b610117565b005b61009d600480360381019061009891906109be565b610372565b005b6100a76104aa565b6040516100b49190610dfa565b60405180910390f35b6100c56104b4565b6040516100d29190610d76565b60405180910390f35b6100e3610605565b6040516100f09190610dfa565b60405180910390f35b61010161060e565b60405161010e9190610d54565b60405180910390f35b60018060008282546101299190610f8a565b92505081905550600360405180608001604052803373ffffffffffffffffffffffffffffffffffffffff16815260200184815260200183815260200142815250908060018154018082558091505060019003906000526020600020906004020160009091909190915060008201518160000160006101000a81548173ffffffffffffffffffffffffffffffffffffffff021916908373ffffffffffffffffffffffffffffffffffffffff16021790555060208201518160010190805190602001906101f59291906108b3565b5060408201518160020190805190602001906102129291906108b3565b506060820151816003015550503373ffffffffffffffffffffffffffffffffffffffff167f5d091ac408c1b437acf3366470b71cafcee2720cd3cce6d7c6419082709e895c42848460405161026993929190610e45565b60405180910390a2600066038d7ea4c680009050478111156102c0576040517f08c379a00000000000000000000000000000000000000000000000000000000081526004016102b790610dda565b60405180910390fd5b60003373ffffffffffffffffffffffffffffffffffffffff16826040516102e690610d3f565b60006040518083038185875af1925050503d8060008114610323576040519150601f19603f3d011682016040523d82523d6000602084013e610328565b606091505b505090508061036c576040517f08c379a000000000000000000000000000000000000000000000000000000000815260040161036390610dba565b60405180910390fd5b50505050565b60016000808282546103849190610f8a565b92505081905550600260405180606001604052803373ffffffffffffffffffffffffffffffffffffffff16815260200183815260200142815250908060018154018082558091505060019003906000526020600020906003020160009091909190915060008201518160000160006101000a81548173ffffffffffffffffffffffffffffffffffffffff021916908373ffffffffffffffffffffffffffffffffffffffff160217905550602082015181600101908051906020019061044a9291906108b3565b506040820151816002015550503373ffffffffffffffffffffffffffffffffffffffff167f827fc0b1433d32e3710239670a4c525416496a64d64f2374a5e4ea595c0738c6428360405161049f929190610e15565b60405180910390a250565b6000600154905090565b60606002805480602002602001604051908101604052809291908181526020016000905b828210156105fc57838290600052602060002090600302016040518060600160405290816000820160009054906101000a900473ffffffffffffffffffffffffffffffffffffffff1673ffffffffffffffffffffffffffffffffffffffff1673ffffffffffffffffffffffffffffffffffffffff1681526020016001820180546105619061105e565b80601f016020809104026020016040519081016040528092919081815260200182805461058d9061105e565b80156105da5780601f106105af576101008083540402835291602001916105da565b820191906000526020600020905b8154815290600101906020018083116105bd57829003601f168201915b50505050508152602001600282015481525050815260200190600101906104d8565b50505050905090565b60008054905090565b60606003805480602002602001604051908101604052809291908181526020016000905b828210156107e857838290600052602060002090600402016040518060800160405290816000820160009054906101000a900473ffffffffffffffffffffffffffffffffffffffff1673ffffffffffffffffffffffffffffffffffffffff1673ffffffffffffffffffffffffffffffffffffffff1681526020016001820180546106bb9061105e565b80601f01602080910402602001604051908101604052809291908181526020018280546106e79061105e565b80156107345780601f1061070957610100808354040283529160200191610734565b820191906000526020600020905b81548152906001019060200180831161071757829003601f168201915b5050505050815260200160028201805461074d9061105e565b80601f01602080910402602001604051908101604052809291908181526020018280546107799061105e565b80156107c65780601f1061079b576101008083540402835291602001916107c6565b820191906000526020600020905b8154815290600101906020018083116107a957829003601f168201915b5050505050815260200160038201548152505081526020019060010190610632565b50505050905090565b610887816040516024016108059190610d98565b6040516020818303038152906040527f41304fac000000000000000000000000000000000000000000000000000000007bffffffffffffffffffffffffffffffffffffffffffffffffffffffff19166020820180517bffffffffffffffffffffffffffffffffffffffffffffffffffffffff838183161783525050505061088a565b50565b60008151905060006a636f6e736f6c652e6c6f679050602083016000808483855afa5050505050565b8280546108bf9061105e565b90600052602060002090601f0160209004810192826108e15760008555610928565b82601f106108fa57805160ff1916838001178555610928565b82800160010185558215610928579182015b8281111561092757825182559160200191906001019061090c565b5b5090506109359190610939565b5090565b5b8082111561095257600081600090555060010161093a565b5090565b600061096961096484610eaf565b610e8a565b90508281526020810184848401111561098157600080fd5b61098c84828561101c565b509392505050565b600082601f8301126109a557600080fd5b81356109b5848260208601610956565b91505092915050565b6000602082840312156109d057600080fd5b600082013567ffffffffffffffff8111156109ea57600080fd5b6109f684828501610994565b91505092915050565b60008060408385031215610a1257600080fd5b600083013567ffffffffffffffff811115610a2c57600080fd5b610a3885828601610994565b925050602083013567ffffffffffffffff811115610a5557600080fd5b610a6185828601610994565b9150509250929050565b6000610a778383610c67565b905092915050565b6000610a8b8383610cd1565b905092915050565b610a9c81610fe0565b82525050565b6000610aad82610f00565b610ab78185610f3b565b935083602082028501610ac985610ee0565b8060005b85811015610b055784840389528151610ae68582610a6b565b9450610af183610f21565b925060208a01995050600181019050610acd565b50829750879550505050505092915050565b6000610b2282610f0b565b610b2c8185610f4c565b935083602082028501610b3e85610ef0565b8060005b85811015610b7a5784840389528151610b5b8582610a7f565b9450610b6683610f2e565b925060208a01995050600181019050610b42565b50829750879550505050505092915050565b6000610b9782610f16565b610ba18185610f68565b9350610bb181856020860161102b565b610bba8161114e565b840191505092915050565b6000610bd082610f16565b610bda8185610f79565b9350610bea81856020860161102b565b610bf38161114e565b840191505092915050565b6000610c0b602783610f79565b9150610c168261115f565b604082019050919050565b6000610c2e600083610f5d565b9150610c39826111ae565b600082019050919050565b6000610c51603383610f79565b9150610c5c826111b1565b604082019050919050565b6000608083016000830151610c7f6000860182610a93565b5060208301518482036020860152610c978282610b8c565b91505060408301518482036040860152610cb18282610b8c565b9150506060830151610cc66060860182610d21565b508091505092915050565b6000606083016000830151610ce96000860182610a93565b5060208301518482036020860152610d018282610b8c565b9150506040830151610d166040860182610d21565b508091505092915050565b610d2a81611012565b82525050565b610d3981611012565b82525050565b6000610d4a82610c21565b9150819050919050565b60006020820190508181036000830152610d6e8184610aa2565b905092915050565b60006020820190508181036000830152610d908184610b17565b905092915050565b60006020820190508181036000830152610db28184610bc5565b905092915050565b60006020820190508181036000830152610dd381610bfe565b9050919050565b60006020820190508181036000830152610df381610c44565b9050919050565b6000602082019050610e0f6000830184610d30565b92915050565b6000604082019050610e2a6000830185610d30565b8181036020830152610e3c8184610bc5565b90509392505050565b6000606082019050610e5a6000830186610d30565b8181036020830152610e6c8185610bc5565b90508181036040830152610e808184610bc5565b9050949350505050565b6000610e94610ea5565b9050610ea08282611090565b919050565b6000604051905090565b600067ffffffffffffffff821115610eca57610ec961111f565b5b610ed38261114e565b9050602081019050919050565b6000819050602082019050919050565b6000819050602082019050919050565b600081519050919050565b600081519050919050565b600081519050919050565b6000602082019050919050565b6000602082019050919050565b600082825260208201905092915050565b600082825260208201905092915050565b600081905092915050565b600082825260208201905092915050565b600082825260208201905092915050565b6000610f9582611012565b9150610fa083611012565b9250827fffffffffffffffffffffffffffffffffffffffffffffffffffffffffffffffff03821115610fd557610fd46110c1565b5b828201905092915050565b6000610feb82610ff2565b9050919050565b600073ffffffffffffffffffffffffffffffffffffffff82169050919050565b6000819050919050565b82818337600083830152505050565b60005b8381101561104957808201518184015260208101905061102e565b83811115611058576000848401525b50505050565b6000600282049050600182168061107657607f821691505b6020821081141561108a576110896110f0565b5b50919050565b6110998261114e565b810181811067ffffffffffffffff821117156110b8576110b761111f565b5b80604052505050565b7f4e487b7100000000000000000000000000000000000000000000000000000000600052601160045260246000fd5b7f4e487b7100000000000000000000000000000000000000000000000000000000600052602260045260246000fd5b7f4e487b7100000000000000000000000000000000000000000000000000000000600052604160045260246000fd5b6000601f19601f8301169050919050565b7f4661696c656420746f207769746864726177206d6f6e65792066726f6d20636f60008201527f6e74726163742e00000000000000000000000000000000000000000000000000602082015250565b50565b7f547279696e6720746f207769746864726177206d6f7265206d6f6e657920746860008201527f616e2074686520636f6e7472616374206861730000000000000000000000000060208201525056fea2646970667358221220cac1572e67607ab6a245a5ec5ee6f51072906301441d30d439abb5159c7e625364736f6c63430008040033574841542055502c204920616d206120636f6e747261637420616e64204920616d20616c736f207665727920736d617274203a29",
  "linkReferences": {},
  "deployedLinkReferences": {}
}