{
  "_format": "hh-sol-artifact-1",
  "contractName": "Greetings",
  "sourceName": "contracts/Greeter.sol",
  "abi": [
    {
      "inputs": [],
      "stateMutability": "payable",
      "type": "constructor"
    },
    {
      "anonymous": false,
      "inputs": [
        {
          "indexed": true,
          "internalType": "address",
          "name": "from",
          "type": "address"
        },
        {
          "indexed": false,
          "internalType": "uint256",
          "name": "timestamp",
          "type": "uint256"
        },
        {
          "indexed": false,
          "internalType": "string",
          "name": "message",
          "type": "string"
        },
        {
          "indexed": false,
          "internalType": "string",
          "name": "name",
          "type": "string"
        }
      ],
      "name": "newHighfive",
      "type": "event"
    },
    {
      "anonymous": false,
      "inputs": [
        {
          "indexed": true,
          "internalType": "address",
          "name": "from",
          "type": "address"
        },
        {
          "indexed": false,
          "internalType": "uint256",
          "name": "timestamp",
          "type": "uint256"
        },
        {
          "indexed": false,
          "internalType": "string",
          "name": "message",
          "type": "string"
        }
      ],
      "name": "newWave",
      "type": "event"
    },
    {
      "inputs": [],
      "name": "getHighfives",
      "outputs": [
        {
          "internalType": "uint256",
          "name": "",
          "type": "uint256"
        }
      ],
      "stateMutability": "view",
      "type": "function"
    },
    {
      "inputs": [],
      "name": "getSentHIGHFIVES",
      "outputs": [
        {
          "components": [
            {
              "internalType": "address",
              "name": "highfiver",
              "type": "address"
            },
            {
              "internalType": "string",
              "name": "message",
              "type": "string"
            },
            {
              "internalType": "string",
              "name": "name",
              "type": "string"
            },
            {
              "internalType": "uint256",
              "name": "timestamp",
              "type": "uint256"
            }
          ],
          "internalType": "struct Greetings.HighFive[]",
          "name": "",
          "type": "tuple[]"
        }
      ],
      "stateMutability": "view",
      "type": "function"
    },
    {
      "inputs": [],
      "name": "getSentWAVES",
      "outputs": [
        {
          "components": [
            {
              "internalType": "address",
              "name": "waver",
              "type": "address"
            },
            {
              "internalType": "string",
              "name": "message",
              "type": "string"
            },
            {
              "internalType": "uint256",
              "name": "timestamp",
              "type": "uint256"
            }
          ],
          "internalType": "struct Greetings.Wave[]",
          "name": "",
          "type": "tuple[]"
        }
      ],
      "stateMutability": "view",
      "type": "function"
    },
    {
      "inputs": [],
      "name": "getTotalWaves",
      "outputs": [
        {
          "internalType": "uint256",
          "name": "",
          "type": "uint256"
        }
      ],
      "stateMutability": "view",
      "type": "function"
    },
    {
      "inputs": [
        {
          "internalType": "string",
          "name": "_message",
          "type": "string"
        },
        {
          "internalType": "string",
          "name": "_name",
          "type": "string"
        }
      ],
      "name": "highFive",
      "outputs": [],
      "stateMutability": "nonpayable",
      "type": "function"
    },
    {
      "inputs": [
        {
          "internalType": "string",
          "name": "_message",
          "type": "string"
        }
      ],
      "name": "wave",
      "outputs": [],
      "stateMutability": "nonpayable",
      "type": "function"
    }
  ],
  "bytecode": "0x608060405262000033604051806060016040528060348152602001620016c5603491396200003960201b6200089c1760201c565b620001cd565b620000d98160405160240162000050919062000146565b6040516020818303038152906040527f41304fac000000000000000000000000000000000000000000000000000000007bffffffffffffffffffffffffffffffffffffffffffffffffffffffff19166020820180517bffffffffffffffffffffffffffffffffffffffffffffffffffffffff8381831617835250505050620000dc60201b60201c565b50565b60008151905060006a636f6e736f6c652e6c6f679050602083016000808483855afa5050505050565b600062000112826200016a565b6200011e818562000175565b93506200013081856020860162000186565b6200013b81620001bc565b840191505092915050565b6000602082019050818103600083015262000162818462000105565b905092915050565b600081519050919050565b600082825260208201905092915050565b60005b83811015620001a657808201518184015260208101905062000189565b83811115620001b6576000848401525b50505050565b6000601f19601f8301169050919050565b6114e880620001dd6000396000f3fe608060405234801561001057600080fd5b50600436106100625760003560e01c80632922927f14610067578063449d46c0146100835780637e0e90cb1461009f57806388219710146100bd5780639a2cdc08146100db578063ccfc59a6146100f9575b600080fd5b610081600480360381019061007c9190610be2565b610117565b005b61009d60048036038101906100989190610ba1565b61041d565b005b6100a7610555565b6040516100b4919061104c565b60405180910390f35b6100c561055f565b6040516100d29190610f68565b60405180910390f35b6100e36106b0565b6040516100f0919061104c565b60405180910390f35b6101016106b9565b60405161010e9190610f46565b60405180910390f35b600180600082825461012991906111dc565b92505081905550600360405180608001604052803373ffffffffffffffffffffffffffffffffffffffff16815260200184815260200183815260200142815250908060018154018082558091505060019003906000526020600020906004020160009091909190915060008201518160000160006101000a81548173ffffffffffffffffffffffffffffffffffffffff021916908373ffffffffffffffffffffffffffffffffffffffff16021790555060208201518160010190805190602001906101f5929190610a96565b506040820151816002019080519060200190610212929190610a96565b5060608201518160030155505060006064424461022f91906111dc565b6102399190611313565b905061027a6040518060400160405280601681526020017f52616e646f6d20232067656e6572617465643a2025730000000000000000000081525082610935565b600081905060328210156103c5576102c76040518060400160405280600781526020017f257320776f6e2100000000000000000000000000000000000000000000000000815250336109d1565b600066038d7ea4c68000905047811115610316576040517f08c379a000000000000000000000000000000000000000000000000000000000815260040161030d9061102c565b60405180910390fd5b60003373ffffffffffffffffffffffffffffffffffffffff168260405161033c90610f31565b60006040518083038185875af1925050503d8060008114610379576040519150601f19603f3d011682016040523d82523d6000602084013e61037e565b606091505b50509050806103c2576040517f08c379a00000000000000000000000000000000000000000000000000000000081526004016103b99061100c565b60405180910390fd5b50505b3373ffffffffffffffffffffffffffffffffffffffff167f5d091ac408c1b437acf3366470b71cafcee2720cd3cce6d7c6419082709e895c42868660405161040f93929190611097565b60405180910390a250505050565b600160008082825461042f91906111dc565b92505081905550600260405180606001604052803373ffffffffffffffffffffffffffffffffffffffff16815260200183815260200142815250908060018154018082558091505060019003906000526020600020906003020160009091909190915060008201518160000160006101000a81548173ffffffffffffffffffffffffffffffffffffffff021916908373ffffffffffffffffffffffffffffffffffffffff16021790555060208201518160010190805190602001906104f5929190610a96565b506040820151816002015550503373ffffffffffffffffffffffffffffffffffffffff167f827fc0b1433d32e3710239670a4c525416496a64d64f2374a5e4ea595c0738c6428360405161054a929190611067565b60405180910390a250565b6000600154905090565b60606002805480602002602001604051908101604052809291908181526020016000905b828210156106a757838290600052602060002090600302016040518060600160405290816000820160009054906101000a900473ffffffffffffffffffffffffffffffffffffffff1673ffffffffffffffffffffffffffffffffffffffff1673ffffffffffffffffffffffffffffffffffffffff16815260200160018201805461060c906112b0565b80601f0160208091040260200160405190810160405280929190818152602001828054610638906112b0565b80156106855780601f1061065a57610100808354040283529160200191610685565b820191906000526020600020905b81548152906001019060200180831161066857829003601f168201915b5050505050815260200160028201548152505081526020019060010190610583565b50505050905090565b60008054905090565b60606003805480602002602001604051908101604052809291908181526020016000905b8282101561089357838290600052602060002090600402016040518060800160405290816000820160009054906101000a900473ffffffffffffffffffffffffffffffffffffffff1673ffffffffffffffffffffffffffffffffffffffff1673ffffffffffffffffffffffffffffffffffffffff168152602001600182018054610766906112b0565b80601f0160208091040260200160405190810160405280929190818152602001828054610792906112b0565b80156107df5780601f106107b4576101008083540402835291602001916107df565b820191906000526020600020905b8154815290600101906020018083116107c257829003601f168201915b505050505081526020016002820180546107f8906112b0565b80601f0160208091040260200160405190810160405280929190818152602001828054610824906112b0565b80156108715780601f1061084657610100808354040283529160200191610871565b820191906000526020600020905b81548152906001019060200180831161085457829003601f168201915b50505050508152602001600382015481525050815260200190600101906106dd565b50505050905090565b610932816040516024016108b09190610f8a565b6040516020818303038152906040527f41304fac000000000000000000000000000000000000000000000000000000007bffffffffffffffffffffffffffffffffffffffffffffffffffffffff19166020820180517bffffffffffffffffffffffffffffffffffffffffffffffffffffffff8381831617835250505050610a6d565b50565b6109cd828260405160240161094b929190610fdc565b6040516020818303038152906040527f9710a9d0000000000000000000000000000000000000000000000000000000007bffffffffffffffffffffffffffffffffffffffffffffffffffffffff19166020820180517bffffffffffffffffffffffffffffffffffffffffffffffffffffffff8381831617835250505050610a6d565b5050565b610a6982826040516024016109e7929190610fac565b6040516020818303038152906040527f319af333000000000000000000000000000000000000000000000000000000007bffffffffffffffffffffffffffffffffffffffffffffffffffffffff19166020820180517bffffffffffffffffffffffffffffffffffffffffffffffffffffffff8381831617835250505050610a6d565b5050565b60008151905060006a636f6e736f6c652e6c6f679050602083016000808483855afa5050505050565b828054610aa2906112b0565b90600052602060002090601f016020900481019282610ac45760008555610b0b565b82601f10610add57805160ff1916838001178555610b0b565b82800160010185558215610b0b579182015b82811115610b0a578251825591602001919060010190610aef565b5b509050610b189190610b1c565b5090565b5b80821115610b35576000816000905550600101610b1d565b5090565b6000610b4c610b4784611101565b6110dc565b905082815260208101848484011115610b6457600080fd5b610b6f84828561126e565b509392505050565b600082601f830112610b8857600080fd5b8135610b98848260208601610b39565b91505092915050565b600060208284031215610bb357600080fd5b600082013567ffffffffffffffff811115610bcd57600080fd5b610bd984828501610b77565b91505092915050565b60008060408385031215610bf557600080fd5b600083013567ffffffffffffffff811115610c0f57600080fd5b610c1b85828601610b77565b925050602083013567ffffffffffffffff811115610c3857600080fd5b610c4485828601610b77565b9150509250929050565b6000610c5a8383610e59565b905092915050565b6000610c6e8383610ec3565b905092915050565b610c7f81611232565b82525050565b610c8e81611232565b82525050565b6000610c9f82611152565b610ca9818561118d565b935083602082028501610cbb85611132565b8060005b85811015610cf75784840389528151610cd88582610c4e565b9450610ce383611173565b925060208a01995050600181019050610cbf565b50829750879550505050505092915050565b6000610d148261115d565b610d1e818561119e565b935083602082028501610d3085611142565b8060005b85811015610d6c5784840389528151610d4d8582610c62565b9450610d5883611180565b925060208a01995050600181019050610d34565b50829750879550505050505092915050565b6000610d8982611168565b610d9381856111ba565b9350610da381856020860161127d565b610dac81611400565b840191505092915050565b6000610dc282611168565b610dcc81856111cb565b9350610ddc81856020860161127d565b610de581611400565b840191505092915050565b6000610dfd6027836111cb565b9150610e0882611411565b604082019050919050565b6000610e206000836111af565b9150610e2b82611460565b600082019050919050565b6000610e436033836111cb565b9150610e4e82611463565b604082019050919050565b6000608083016000830151610e716000860182610c76565b5060208301518482036020860152610e898282610d7e565b91505060408301518482036040860152610ea38282610d7e565b9150506060830151610eb86060860182610f13565b508091505092915050565b6000606083016000830151610edb6000860182610c76565b5060208301518482036020860152610ef38282610d7e565b9150506040830151610f086040860182610f13565b508091505092915050565b610f1c81611264565b82525050565b610f2b81611264565b82525050565b6000610f3c82610e13565b9150819050919050565b60006020820190508181036000830152610f608184610c94565b905092915050565b60006020820190508181036000830152610f828184610d09565b905092915050565b60006020820190508181036000830152610fa48184610db7565b905092915050565b60006040820190508181036000830152610fc68185610db7565b9050610fd56020830184610c85565b9392505050565b60006040820190508181036000830152610ff68185610db7565b90506110056020830184610f22565b9392505050565b6000602082019050818103600083015261102581610df0565b9050919050565b6000602082019050818103600083015261104581610e36565b9050919050565b60006020820190506110616000830184610f22565b92915050565b600060408201905061107c6000830185610f22565b818103602083015261108e8184610db7565b90509392505050565b60006060820190506110ac6000830186610f22565b81810360208301526110be8185610db7565b905081810360408301526110d28184610db7565b9050949350505050565b60006110e66110f7565b90506110f282826112e2565b919050565b6000604051905090565b600067ffffffffffffffff82111561111c5761111b6113d1565b5b61112582611400565b9050602081019050919050565b6000819050602082019050919050565b6000819050602082019050919050565b600081519050919050565b600081519050919050565b600081519050919050565b6000602082019050919050565b6000602082019050919050565b600082825260208201905092915050565b600082825260208201905092915050565b600081905092915050565b600082825260208201905092915050565b600082825260208201905092915050565b60006111e782611264565b91506111f283611264565b9250827fffffffffffffffffffffffffffffffffffffffffffffffffffffffffffffffff0382111561122757611226611344565b5b828201905092915050565b600061123d82611244565b9050919050565b600073ffffffffffffffffffffffffffffffffffffffff82169050919050565b6000819050919050565b82818337600083830152505050565b60005b8381101561129b578082015181840152602081019050611280565b838111156112aa576000848401525b50505050565b600060028204905060018216806112c857607f821691505b602082108114156112dc576112db6113a2565b5b50919050565b6112eb82611400565b810181811067ffffffffffffffff8211171561130a576113096113d1565b5b80604052505050565b600061131e82611264565b915061132983611264565b92508261133957611338611373565b5b828206905092915050565b7f4e487b7100000000000000000000000000000000000000000000000000000000600052601160045260246000fd5b7f4e487b7100000000000000000000000000000000000000000000000000000000600052601260045260246000fd5b7f4e487b7100000000000000000000000000000000000000000000000000000000600052602260045260246000fd5b7f4e487b7100000000000000000000000000000000000000000000000000000000600052604160045260246000fd5b6000601f19601f8301169050919050565b7f4661696c656420746f207769746864726177206d6f6e65792066726f6d20636f60008201527f6e74726163742e00000000000000000000000000000000000000000000000000602082015250565b50565b7f547279696e6720746f207769746864726177206d6f7265206d6f6e657920746860008201527f616e2074686520636f6e7472616374206861730000000000000000000000000060208201525056fea2646970667358221220a40ea09f5ad9c5ce1c88e92d2889cd9e31717cf1a5e767850a9f823e0791d63364736f6c63430008040033574841542055502c204920616d206120636f6e747261637420616e64204920616d20616c736f207665727920736d617274203a29",
  "linkReferences": {},
  "deployedLinkReferences": {}
}